{
    "_format": "hh-sol-artifact-1",
    "contractName": "MyBoldNFT",
    "sourceName": "contracts/MyBoldNFT.sol",
    "abi": [
        {
            "inputs": [],
            "stateMutability": "nonpayable",
            "type": "constructor"
        },
        {
            "anonymous": false,
            "inputs": [
                {
                    "indexed": true,
                    "internalType": "address",
                    "name": "owner",
                    "type": "address"
                },
                {
                    "indexed": true,
                    "internalType": "address",
                    "name": "approved",
                    "type": "address"
                },
                {
                    "indexed": true,
                    "internalType": "uint256",
                    "name": "tokenId",
                    "type": "uint256"
                }
            ],
            "name": "Approval",
            "type": "event"
        },
        {
            "anonymous": false,
            "inputs": [
                {
                    "indexed": true,
                    "internalType": "address",
                    "name": "owner",
                    "type": "address"
                },
                {
                    "indexed": true,
                    "internalType": "address",
                    "name": "operator",
                    "type": "address"
                },
                {
                    "indexed": false,
                    "internalType": "bool",
                    "name": "approved",
                    "type": "bool"
                }
            ],
            "name": "ApprovalForAll",
            "type": "event"
        },
        {
            "anonymous": false,
            "inputs": [
                {
                    "indexed": false,
                    "internalType": "address",
                    "name": "sender",
                    "type": "address"
                },
                {
                    "indexed": false,
                    "internalType": "uint256",
                    "name": "tokenId",
                    "type": "uint256"
                }
            ],
            "name": "NewBoldNFTMinted",
            "type": "event"
        },
        {
            "anonymous": false,
            "inputs": [
                {
                    "indexed": true,
                    "internalType": "address",
                    "name": "from",
                    "type": "address"
                },
                {
                    "indexed": true,
                    "internalType": "address",
                    "name": "to",
                    "type": "address"
                },
                {
                    "indexed": true,
                    "internalType": "uint256",
                    "name": "tokenId",
                    "type": "uint256"
                }
            ],
            "name": "Transfer",
            "type": "event"
        },
        {
            "inputs": [
                {
                    "internalType": "address",
                    "name": "to",
                    "type": "address"
                },
                {
                    "internalType": "uint256",
                    "name": "tokenId",
                    "type": "uint256"
                }
            ],
            "name": "approve",
            "outputs": [],
            "stateMutability": "nonpayable",
            "type": "function"
        },
        {
            "inputs": [
                {
                    "internalType": "address",
                    "name": "owner",
                    "type": "address"
                }
            ],
            "name": "balanceOf",
            "outputs": [
                {
                    "internalType": "uint256",
                    "name": "",
                    "type": "uint256"
                }
            ],
            "stateMutability": "view",
            "type": "function"
        },
        {
            "inputs": [
                {
                    "internalType": "uint256",
                    "name": "tokenId",
                    "type": "uint256"
                }
            ],
            "name": "getApproved",
            "outputs": [
                {
                    "internalType": "address",
                    "name": "",
                    "type": "address"
                }
            ],
            "stateMutability": "view",
            "type": "function"
        },
        {
            "inputs": [
                {
                    "internalType": "address",
                    "name": "owner",
                    "type": "address"
                },
                {
                    "internalType": "address",
                    "name": "operator",
                    "type": "address"
                }
            ],
            "name": "isApprovedForAll",
            "outputs": [
                {
                    "internalType": "bool",
                    "name": "",
                    "type": "bool"
                }
            ],
            "stateMutability": "view",
            "type": "function"
        },
        {
            "inputs": [],
            "name": "mintABoldNFT",
            "outputs": [],
            "stateMutability": "nonpayable",
            "type": "function"
        },
        {
            "inputs": [],
            "name": "name",
            "outputs": [
                {
                    "internalType": "string",
                    "name": "",
                    "type": "string"
                }
            ],
            "stateMutability": "view",
            "type": "function"
        },
        {
            "inputs": [
                {
                    "internalType": "uint256",
                    "name": "tokenId",
                    "type": "uint256"
                }
            ],
            "name": "ownerOf",
            "outputs": [
                {
                    "internalType": "address",
                    "name": "",
                    "type": "address"
                }
            ],
            "stateMutability": "view",
            "type": "function"
        },
        {
            "inputs": [
                {
                    "internalType": "uint256",
                    "name": "tokenId",
                    "type": "uint256"
                }
            ],
            "name": "pickRandomColor",
            "outputs": [
                {
                    "internalType": "string",
                    "name": "",
                    "type": "string"
                }
            ],
            "stateMutability": "view",
            "type": "function"
        },
        {
            "inputs": [
                {
                    "internalType": "uint256",
                    "name": "tokenId",
                    "type": "uint256"
                }
            ],
            "name": "pickRandomFirstWord",
            "outputs": [
                {
                    "internalType": "string",
                    "name": "",
                    "type": "string"
                }
            ],
            "stateMutability": "view",
            "type": "function"
        },
        {
            "inputs": [
                {
                    "internalType": "uint256",
                    "name": "tokenId",
                    "type": "uint256"
                }
            ],
            "name": "pickRandomSecondWord",
            "outputs": [
                {
                    "internalType": "string",
                    "name": "",
                    "type": "string"
                }
            ],
            "stateMutability": "view",
            "type": "function"
        },
        {
            "inputs": [
                {
                    "internalType": "address",
                    "name": "from",
                    "type": "address"
                },
                {
                    "internalType": "address",
                    "name": "to",
                    "type": "address"
                },
                {
                    "internalType": "uint256",
                    "name": "tokenId",
                    "type": "uint256"
                }
            ],
            "name": "safeTransferFrom",
            "outputs": [],
            "stateMutability": "nonpayable",
            "type": "function"
        },
        {
            "inputs": [
                {
                    "internalType": "address",
                    "name": "from",
                    "type": "address"
                },
                {
                    "internalType": "address",
                    "name": "to",
                    "type": "address"
                },
                {
                    "internalType": "uint256",
                    "name": "tokenId",
                    "type": "uint256"
                },
                {
                    "internalType": "bytes",
                    "name": "_data",
                    "type": "bytes"
                }
            ],
            "name": "safeTransferFrom",
            "outputs": [],
            "stateMutability": "nonpayable",
            "type": "function"
        },
        {
            "inputs": [
                {
                    "internalType": "address",
                    "name": "operator",
                    "type": "address"
                },
                {
                    "internalType": "bool",
                    "name": "approved",
                    "type": "bool"
                }
            ],
            "name": "setApprovalForAll",
            "outputs": [],
            "stateMutability": "nonpayable",
            "type": "function"
        },
        {
            "inputs": [
                {
                    "internalType": "bytes4",
                    "name": "interfaceId",
                    "type": "bytes4"
                }
            ],
            "name": "supportsInterface",
            "outputs": [
                {
                    "internalType": "bool",
                    "name": "",
                    "type": "bool"
                }
            ],
            "stateMutability": "view",
            "type": "function"
        },
        {
            "inputs": [],
            "name": "symbol",
            "outputs": [
                {
                    "internalType": "string",
                    "name": "",
                    "type": "string"
                }
            ],
            "stateMutability": "view",
            "type": "function"
        },
        {
            "inputs": [
                {
                    "internalType": "uint256",
                    "name": "tokenId",
                    "type": "uint256"
                }
            ],
            "name": "tokenURI",
            "outputs": [
                {
                    "internalType": "string",
                    "name": "",
                    "type": "string"
                }
            ],
            "stateMutability": "view",
            "type": "function"
        },
        {
            "inputs": [
                {
                    "internalType": "address",
                    "name": "from",
                    "type": "address"
                },
                {
                    "internalType": "address",
                    "name": "to",
                    "type": "address"
                },
                {
                    "internalType": "uint256",
                    "name": "tokenId",
                    "type": "uint256"
                }
            ],
            "name": "transferFrom",
            "outputs": [],
            "stateMutability": "nonpayable",
            "type": "function"
        }
    ],
    "bytecode": "0x608060405260405180610100016040528060d381526020016200481160d391396008908051906020019062000036929190620006ea565b50604051806080016040528060568152602001620048e4605691396009908051906020019062000068929190620006ea565b506040518061010001604052806040518060400160405280600981526020017f43656c656272617465000000000000000000000000000000000000000000000081525081526020016040518060400160405280600481526020017f507573680000000000000000000000000000000000000000000000000000000081525081526020016040518060400160405280600481526020017f4c6f76650000000000000000000000000000000000000000000000000000000081525081526020016040518060400160405280600a81526020017f417070726563696174650000000000000000000000000000000000000000000081525081526020016040518060400160405280600881526020017f5072617920466f7200000000000000000000000000000000000000000000000081525081526020016040518060400160405280600781526020017f4170706c6175640000000000000000000000000000000000000000000000000081525081526020016040518060400160405280600781526020017f526573706563740000000000000000000000000000000000000000000000000081525081526020016040518060400160405280600681526020017f486f6e6f75720000000000000000000000000000000000000000000000000000815250815250600a9060086200025d9291906200077b565b5060405180608001604052806040518060400160405280600981526020017f20596f757273656c66000000000000000000000000000000000000000000000081525081526020016040518060400160405280600781526020017f204f74686572730000000000000000000000000000000000000000000000000081525081526020016040518060400160405280600881526020017f20416c6c204d656e00000000000000000000000000000000000000000000000081525081526020016040518060400160405280600981526020017f2045766572796f6e650000000000000000000000000000000000000000000000815250815250600b90600462000365929190620007e2565b506040518060e001604052806040518060400160405280600481526020017f70696e6b0000000000000000000000000000000000000000000000000000000081525081526020016040518060400160405280600381526020017f726564000000000000000000000000000000000000000000000000000000000081525081526020016040518060400160405280600781526020017f233038433241380000000000000000000000000000000000000000000000000081525081526020016040518060400160405280600581526020017f626c61636b00000000000000000000000000000000000000000000000000000081525081526020016040518060400160405280600681526020017f79656c6c6f77000000000000000000000000000000000000000000000000000081525081526020016040518060400160405280600481526020017f626c75650000000000000000000000000000000000000000000000000000000081525081526020016040518060400160405280600581526020017f677265656e000000000000000000000000000000000000000000000000000000815250815250600c9060076200051e92919062000849565b503480156200052c57600080fd5b506040518060400160405280600781526020017f426f6c644e4654000000000000000000000000000000000000000000000000008152506040518060400160405280600481526020017f424f4c44000000000000000000000000000000000000000000000000000000008152508160009080519060200190620005b1929190620006ea565b508060019080519060200190620005ca929190620006ea565b505050620006186040518060400160405280602081526020017f54686973206973206d79204e465420436f6e74726163742e20596561682121218152506200061e60201b620011611760201c565b62000a6a565b620006be816040516024016200063591906200097e565b6040516020818303038152906040527f41304fac000000000000000000000000000000000000000000000000000000007bffffffffffffffffffffffffffffffffffffffffffffffffffffffff19166020820180517bffffffffffffffffffffffffffffffffffffffffffffffffffffffff8381831617835250505050620006c160201b60201c565b50565b60008151905060006a636f6e736f6c652e6c6f679050602083016000808483855afa5050505050565b828054620006f890620009f4565b90600052602060002090601f0160209004810192826200071c576000855562000768565b82601f106200073757805160ff191683800117855562000768565b8280016001018555821562000768579182015b82811115620007675782518255916020019190600101906200074a565b5b509050620007779190620008b0565b5090565b828054828255906000526020600020908101928215620007cf579160200282015b82811115620007ce578251829080519060200190620007bd929190620006ea565b50916020019190600101906200079c565b5b509050620007de9190620008cf565b5090565b82805482825590600052602060002090810192821562000836579160200282015b828111156200083557825182908051906020019062000824929190620006ea565b509160200191906001019062000803565b5b509050620008459190620008cf565b5090565b8280548282559060005260206000209081019282156200089d579160200282015b828111156200089c5782518290805190602001906200088b929190620006ea565b50916020019190600101906200086a565b5b509050620008ac9190620008cf565b5090565b5b80821115620008cb576000816000905550600101620008b1565b5090565b5b80821115620008f35760008181620008e99190620008f7565b50600101620008d0565b5090565b5080546200090590620009f4565b6000825580601f106200091957506200093a565b601f016020900490600052602060002090810190620009399190620008b0565b5b50565b60006200094a82620009a2565b620009568185620009ad565b935062000968818560208601620009be565b620009738162000a59565b840191505092915050565b600060208201905081810360008301526200099a81846200093d565b905092915050565b600081519050919050565b600082825260208201905092915050565b60005b83811015620009de578082015181840152602081019050620009c1565b83811115620009ee576000848401525b50505050565b6000600282049050600182168062000a0d57607f821691505b6020821081141562000a245762000a2362000a2a565b5b50919050565b7f4e487b7100000000000000000000000000000000000000000000000000000000600052602260045260246000fd5b6000601f19601f8301169050919050565b613d978062000a7a6000396000f3fe608060405234801561001057600080fd5b506004361061010b5760003560e01c8063514dc8c6116100a2578063a22cb46511610071578063a22cb465146102ca578063b187301f146102e6578063b88d4fde14610316578063c87b56dd14610332578063e985e9c5146103625761010b565b8063514dc8c61461021c5780636352211e1461024c57806370a082311461027c57806395d89b41146102ac5761010b565b806309da0d5b116100de57806309da0d5b146101aa57806323b872dd146101b45780632de38d68146101d057806342842e0e146102005761010b565b806301ffc9a71461011057806306fdde0314610140578063081812fc1461015e578063095ea7b31461018e575b600080fd5b61012a60048036038101906101259190612561565b610392565b6040516101379190612c54565b60405180910390f35b610148610474565b6040516101559190612c6f565b60405180910390f35b610178600480360381019061017391906125b3565b610506565b6040516101859190612bc4565b60405180910390f35b6101a860048036038101906101a39190612525565b61058b565b005b6101b26106a3565b005b6101ce60048036038101906101c9919061241f565b61092d565b005b6101ea60048036038101906101e591906125b3565b61098d565b6040516101f79190612c6f565b60405180910390f35b61021a6004803603810190610215919061241f565b610aab565b005b610236600480360381019061023191906125b3565b610acb565b6040516102439190612c6f565b60405180910390f35b610266600480360381019061026191906125b3565b610be9565b6040516102739190612bc4565b60405180910390f35b610296600480360381019061029191906123ba565b610c9b565b6040516102a39190612ecf565b60405180910390f35b6102b4610d53565b6040516102c19190612c6f565b60405180910390f35b6102e460048036038101906102df91906124e9565b610de5565b005b61030060048036038101906102fb91906125b3565b610dfb565b60405161030d9190612c6f565b60405180910390f35b610330600480360381019061032b919061246e565b610f19565b005b61034c600480360381019061034791906125b3565b610f7b565b6040516103599190612c6f565b60405180910390f35b61037c600480360381019061037791906123e3565b6110cd565b6040516103899190612c54565b60405180910390f35b60007f80ac58cd000000000000000000000000000000000000000000000000000000007bffffffffffffffffffffffffffffffffffffffffffffffffffffffff1916827bffffffffffffffffffffffffffffffffffffffffffffffffffffffff1916148061045d57507f5b5e139f000000000000000000000000000000000000000000000000000000007bffffffffffffffffffffffffffffffffffffffffffffffffffffffff1916827bffffffffffffffffffffffffffffffffffffffffffffffffffffffff1916145b8061046d575061046c826111fa565b5b9050919050565b60606000805461048390613163565b80601f01602080910402602001604051908101604052809291908181526020018280546104af90613163565b80156104fc5780601f106104d1576101008083540402835291602001916104fc565b820191906000526020600020905b8154815290600101906020018083116104df57829003601f168201915b5050505050905090565b600061051182611264565b610550576040517f08c379a000000000000000000000000000000000000000000000000000000000815260040161054790612e2f565b60405180910390fd5b6004600083815260200190815260200160002060009054906101000a900473ffffffffffffffffffffffffffffffffffffffff169050919050565b600061059682610be9565b90508073ffffffffffffffffffffffffffffffffffffffff168373ffffffffffffffffffffffffffffffffffffffff161415610607576040517f08c379a00000000000000000000000000000000000000000000000000000000081526004016105fe90612e8f565b60405180910390fd5b8073ffffffffffffffffffffffffffffffffffffffff166106266112d0565b73ffffffffffffffffffffffffffffffffffffffff16148061065557506106548161064f6112d0565b6110cd565b5b610694576040517f08c379a000000000000000000000000000000000000000000000000000000000815260040161068b90612d6f565b60405180910390fd5b61069e83836112d8565b505050565b60006106af6007611391565b905060006106bc8261098d565b905060006106c983610dfb565b9050600082826040516020016106e0929190612a8a565b604051602081830303815290604052905060006106fc85610acb565b905060006008826009856040516020016107199493929190612aae565b60405160208183030381529060405290506107686040518060400160405280601581526020017f0a2d2d2d2d2d2d2d2d2d2d2d2d2d2d2d2d2d2d2d2d0000000000000000000000815250611161565b61077181611161565b6107af6040518060400160405280601581526020017f2d2d2d2d2d2d2d2d2d2d2d2d2d2d2d2d2d2d2d2d0a0000000000000000000000815250611161565b60006107e3846107be8461139f565b6040516020016107cf929190612b19565b60405160208183030381529060405261139f565b90506000816040516020016107f89190612b80565b60405160208183030381529060405290506108476040518060400160405280601581526020017f0a2d2d2d2d2d2d2d2d2d2d2d2d2d2d2d2d2d2d2d2d0000000000000000000000815250611161565b61085081611161565b61088e6040518060400160405280601581526020017f2d2d2d2d2d2d2d2d2d2d2d2d2d2d2d2d2d2d2d2d0a0000000000000000000000815250611161565b610898338961155d565b6108bd8860405180610380016040528061035981526020016139e2610359913961157b565b6108e0604051806060016040528060278152602001613d3b6027913989336115ef565b6108ea600761168e565b7f6290d248786ef87d48c0f5cd149c740cd577b86b8431189d80d2e8be99f997df338960405161091b929190612c2b565b60405180910390a15050505050505050565b61093e6109386112d0565b826116a4565b61097d576040517f08c379a000000000000000000000000000000000000000000000000000000000815260040161097490612eaf565b60405180910390fd5b610988838383611782565b505050565b606060006109c161099d846119de565b6040516020016109ad9190612b5e565b604051602081830303815290604052611b8b565b9050600a80549050816109d4919061320f565b9050600a8181548110610a10577f4e487b7100000000000000000000000000000000000000000000000000000000600052603260045260246000fd5b906000526020600020018054610a2590613163565b80601f0160208091040260200160405190810160405280929190818152602001828054610a5190613163565b8015610a9e5780601f10610a7357610100808354040283529160200191610a9e565b820191906000526020600020905b815481529060010190602001808311610a8157829003601f168201915b5050505050915050919050565b610ac683838360405180602001604052806000815250610f19565b505050565b60606000610aff610adb846119de565b604051602001610aeb9190612ba2565b604051602081830303815290604052611b8b565b9050600c8054905081610b12919061320f565b9050600c8181548110610b4e577f4e487b7100000000000000000000000000000000000000000000000000000000600052603260045260246000fd5b906000526020600020018054610b6390613163565b80601f0160208091040260200160405190810160405280929190818152602001828054610b8f90613163565b8015610bdc5780601f10610bb157610100808354040283529160200191610bdc565b820191906000526020600020905b815481529060010190602001808311610bbf57829003601f168201915b5050505050915050919050565b6000806002600084815260200190815260200160002060009054906101000a900473ffffffffffffffffffffffffffffffffffffffff169050600073ffffffffffffffffffffffffffffffffffffffff168173ffffffffffffffffffffffffffffffffffffffff161415610c92576040517f08c379a0000000000000000000000000000000000000000000000000000000008152600401610c8990612daf565b60405180910390fd5b80915050919050565b60008073ffffffffffffffffffffffffffffffffffffffff168273ffffffffffffffffffffffffffffffffffffffff161415610d0c576040517f08c379a0000000000000000000000000000000000000000000000000000000008152600401610d0390612d8f565b60405180910390fd5b600360008373ffffffffffffffffffffffffffffffffffffffff1673ffffffffffffffffffffffffffffffffffffffff168152602001908152602001600020549050919050565b606060018054610d6290613163565b80601f0160208091040260200160405190810160405280929190818152602001828054610d8e90613163565b8015610ddb5780601f10610db057610100808354040283529160200191610ddb565b820191906000526020600020905b815481529060010190602001808311610dbe57829003601f168201915b5050505050905090565b610df7610df06112d0565b8383611bbe565b5050565b60606000610e2f610e0b846119de565b604051602001610e1b9190612af7565b604051602081830303815290604052611b8b565b9050600b8054905081610e42919061320f565b9050600b8181548110610e7e577f4e487b7100000000000000000000000000000000000000000000000000000000600052603260045260246000fd5b906000526020600020018054610e9390613163565b80601f0160208091040260200160405190810160405280929190818152602001828054610ebf90613163565b8015610f0c5780601f10610ee157610100808354040283529160200191610f0c565b820191906000526020600020905b815481529060010190602001808311610eef57829003601f168201915b5050505050915050919050565b610f2a610f246112d0565b836116a4565b610f69576040517f08c379a0000000000000000000000000000000000000000000000000000000008152600401610f6090612eaf565b60405180910390fd5b610f7584848484611d2b565b50505050565b6060610f8682611264565b610fc5576040517f08c379a0000000000000000000000000000000000000000000000000000000008152600401610fbc90612e0f565b60405180910390fd5b6000600660008481526020019081526020016000208054610fe590613163565b80601f016020809104026020016040519081016040528092919081815260200182805461101190613163565b801561105e5780601f106110335761010080835404028352916020019161105e565b820191906000526020600020905b81548152906001019060200180831161104157829003601f168201915b50505050509050600061106f611d87565b90506000815114156110855781925050506110c8565b6000825111156110ba5780826040516020016110a2929190612a8a565b604051602081830303815290604052925050506110c8565b6110c384611d9e565b925050505b919050565b6000600560008473ffffffffffffffffffffffffffffffffffffffff1673ffffffffffffffffffffffffffffffffffffffff16815260200190815260200160002060008373ffffffffffffffffffffffffffffffffffffffff1673ffffffffffffffffffffffffffffffffffffffff16815260200190815260200160002060009054906101000a900460ff16905092915050565b6111f7816040516024016111759190612c6f565b6040516020818303038152906040527f41304fac000000000000000000000000000000000000000000000000000000007bffffffffffffffffffffffffffffffffffffffffffffffffffffffff19166020820180517bffffffffffffffffffffffffffffffffffffffffffffffffffffffff8381831617835250505050611e45565b50565b60007f01ffc9a7000000000000000000000000000000000000000000000000000000007bffffffffffffffffffffffffffffffffffffffffffffffffffffffff1916827bffffffffffffffffffffffffffffffffffffffffffffffffffffffff1916149050919050565b60008073ffffffffffffffffffffffffffffffffffffffff166002600084815260200190815260200160002060009054906101000a900473ffffffffffffffffffffffffffffffffffffffff1673ffffffffffffffffffffffffffffffffffffffff1614159050919050565b600033905090565b816004600083815260200190815260200160002060006101000a81548173ffffffffffffffffffffffffffffffffffffffff021916908373ffffffffffffffffffffffffffffffffffffffff160217905550808273ffffffffffffffffffffffffffffffffffffffff1661134b83610be9565b73ffffffffffffffffffffffffffffffffffffffff167f8c5be1e5ebec7d5bd14f71427d1e84f3dd0314c0f7b2291e5b200ac8c7c3b92560405160405180910390a45050565b600081600001549050919050565b606060008251905060008114156113c85760405180602001604052806000815250915050611558565b600060036002836113d99190612f98565b6113e39190612fee565b60046113ef919061301f565b905060006020826114009190612f98565b67ffffffffffffffff81111561143f577f4e487b7100000000000000000000000000000000000000000000000000000000600052604160045260246000fd5b6040519080825280601f01601f1916602001820160405280156114715781602001600182028036833780820191505090505b50905060006040518060600160405280604081526020016139a2604091399050600181016020830160005b868110156115155760038101905062ffffff818a015116603f8160121c168401518060081b905060ff603f83600c1c1686015116810190508060081b905060ff603f8360061c1686015116810190508060081b905060ff603f831686015116810190508060e01b9050808452600484019350505061149c565b50600386066001811461152f576002811461153f5761154a565b613d3d60f01b600283035261154a565b603d60f81b60018303525b508484525050819450505050505b919050565b611577828260405180602001604052806000815250611e6e565b5050565b61158482611264565b6115c3576040517f08c379a00000000000000000000000000000000000000000000000000000000081526004016115ba90612dcf565b60405180910390fd5b806006600084815260200190815260200160002090805190602001906115ea929190612246565b505050565b61168983838360405160240161160793929190612c91565b6040516020818303038152906040527fe3849f79000000000000000000000000000000000000000000000000000000007bffffffffffffffffffffffffffffffffffffffffffffffffffffffff19166020820180517bffffffffffffffffffffffffffffffffffffffffffffffffffffffff8381831617835250505050611e45565b505050565b6001816000016000828254019250508190555050565b60006116af82611264565b6116ee576040517f08c379a00000000000000000000000000000000000000000000000000000000081526004016116e590612d4f565b60405180910390fd5b60006116f983610be9565b90508073ffffffffffffffffffffffffffffffffffffffff168473ffffffffffffffffffffffffffffffffffffffff16148061176857508373ffffffffffffffffffffffffffffffffffffffff1661175084610506565b73ffffffffffffffffffffffffffffffffffffffff16145b80611779575061177881856110cd565b5b91505092915050565b8273ffffffffffffffffffffffffffffffffffffffff166117a282610be9565b73ffffffffffffffffffffffffffffffffffffffff16146117f8576040517f08c379a00000000000000000000000000000000000000000000000000000000081526004016117ef90612e4f565b60405180910390fd5b600073ffffffffffffffffffffffffffffffffffffffff168273ffffffffffffffffffffffffffffffffffffffff161415611868576040517f08c379a000000000000000000000000000000000000000000000000000000000815260040161185f90612d0f565b60405180910390fd5b611873838383611ec9565b61187e6000826112d8565b6001600360008573ffffffffffffffffffffffffffffffffffffffff1673ffffffffffffffffffffffffffffffffffffffff16815260200190815260200160002060008282546118ce9190613079565b925050819055506001600360008473ffffffffffffffffffffffffffffffffffffffff1673ffffffffffffffffffffffffffffffffffffffff16815260200190815260200160002060008282546119259190612f98565b92505081905550816002600083815260200190815260200160002060006101000a81548173ffffffffffffffffffffffffffffffffffffffff021916908373ffffffffffffffffffffffffffffffffffffffff160217905550808273ffffffffffffffffffffffffffffffffffffffff168473ffffffffffffffffffffffffffffffffffffffff167fddf252ad1be2c89b69c2b068fc378daa952ba7f163c4a11628f55a4df523b3ef60405160405180910390a4505050565b60606000821415611a26576040518060400160405280600181526020017f30000000000000000000000000000000000000000000000000000000000000008152509050611b86565b600082905060005b60008214611a58578080611a41906131c6565b915050600a82611a519190612fee565b9150611a2e565b60008167ffffffffffffffff811115611a9a577f4e487b7100000000000000000000000000000000000000000000000000000000600052604160045260246000fd5b6040519080825280601f01601f191660200182016040528015611acc5781602001600182028036833780820191505090505b5090505b60008514611b7f57600182611ae59190613079565b9150600a85611af4919061320f565b6030611b009190612f98565b60f81b818381518110611b3c577f4e487b7100000000000000000000000000000000000000000000000000000000600052603260045260246000fd5b60200101907effffffffffffffffffffffffffffffffffffffffffffffffffffffffffffff1916908160001a905350600a85611b789190612fee565b9450611ad0565b8093505050505b919050565b600081604051602001611b9e9190612a73565b6040516020818303038152906040528051906020012060001c9050919050565b8173ffffffffffffffffffffffffffffffffffffffff168373ffffffffffffffffffffffffffffffffffffffff161415611c2d576040517f08c379a0000000000000000000000000000000000000000000000000000000008152600401611c2490612d2f565b60405180910390fd5b80600560008573ffffffffffffffffffffffffffffffffffffffff1673ffffffffffffffffffffffffffffffffffffffff16815260200190815260200160002060008473ffffffffffffffffffffffffffffffffffffffff1673ffffffffffffffffffffffffffffffffffffffff16815260200190815260200160002060006101000a81548160ff0219169083151502179055508173ffffffffffffffffffffffffffffffffffffffff168373ffffffffffffffffffffffffffffffffffffffff167f17307eab39ab6107e8899845ad3d59bd9653f200f220920489ca2b5937696c3183604051611d1e9190612c54565b60405180910390a3505050565b611d36848484611782565b611d4284848484611ece565b611d81576040517f08c379a0000000000000000000000000000000000000000000000000000000008152600401611d7890612ccf565b60405180910390fd5b50505050565b606060405180602001604052806000815250905090565b6060611da982611264565b611de8576040517f08c379a0000000000000000000000000000000000000000000000000000000008152600401611ddf90612e6f565b60405180910390fd5b6000611df2611d87565b90506000815111611e125760405180602001604052806000815250611e3d565b80611e1c846119de565b604051602001611e2d929190612a8a565b6040516020818303038152906040525b915050919050565b60008151905060006a636f6e736f6c652e6c6f679050602083016000808483855afa5050505050565b611e788383612065565b611e856000848484611ece565b611ec4576040517f08c379a0000000000000000000000000000000000000000000000000000000008152600401611ebb90612ccf565b60405180910390fd5b505050565b505050565b6000611eef8473ffffffffffffffffffffffffffffffffffffffff16612233565b15612058578373ffffffffffffffffffffffffffffffffffffffff1663150b7a02611f186112d0565b8786866040518563ffffffff1660e01b8152600401611f3a9493929190612bdf565b602060405180830381600087803b158015611f5457600080fd5b505af1925050508015611f8557506040513d601f19601f82011682018060405250810190611f82919061258a565b60015b612008573d8060008114611fb5576040519150601f19603f3d011682016040523d82523d6000602084013e611fba565b606091505b50600081511415612000576040517f08c379a0000000000000000000000000000000000000000000000000000000008152600401611ff790612ccf565b60405180910390fd5b805181602001fd5b63150b7a0260e01b7bffffffffffffffffffffffffffffffffffffffffffffffffffffffff1916817bffffffffffffffffffffffffffffffffffffffffffffffffffffffff19161491505061205d565b600190505b949350505050565b600073ffffffffffffffffffffffffffffffffffffffff168273ffffffffffffffffffffffffffffffffffffffff1614156120d5576040517f08c379a00000000000000000000000000000000000000000000000000000000081526004016120cc90612def565b60405180910390fd5b6120de81611264565b1561211e576040517f08c379a000000000000000000000000000000000000000000000000000000000815260040161211590612cef565b60405180910390fd5b61212a60008383611ec9565b6001600360008473ffffffffffffffffffffffffffffffffffffffff1673ffffffffffffffffffffffffffffffffffffffff168152602001908152602001600020600082825461217a9190612f98565b92505081905550816002600083815260200190815260200160002060006101000a81548173ffffffffffffffffffffffffffffffffffffffff021916908373ffffffffffffffffffffffffffffffffffffffff160217905550808273ffffffffffffffffffffffffffffffffffffffff16600073ffffffffffffffffffffffffffffffffffffffff167fddf252ad1be2c89b69c2b068fc378daa952ba7f163c4a11628f55a4df523b3ef60405160405180910390a45050565b600080823b905060008111915050919050565b82805461225290613163565b90600052602060002090601f01602090048101928261227457600085556122bb565b82601f1061228d57805160ff19168380011785556122bb565b828001600101855582156122bb579182015b828111156122ba57825182559160200191906001019061229f565b5b5090506122c891906122cc565b5090565b5b808211156122e55760008160009055506001016122cd565b5090565b60006122fc6122f784612f0f565b612eea565b90508281526020810184848401111561231457600080fd5b61231f848285613121565b509392505050565b60008135905061233681613945565b92915050565b60008135905061234b8161395c565b92915050565b60008135905061236081613973565b92915050565b60008151905061237581613973565b92915050565b600082601f83011261238c57600080fd5b813561239c8482602086016122e9565b91505092915050565b6000813590506123b48161398a565b92915050565b6000602082840312156123cc57600080fd5b60006123da84828501612327565b91505092915050565b600080604083850312156123f657600080fd5b600061240485828601612327565b925050602061241585828601612327565b9150509250929050565b60008060006060848603121561243457600080fd5b600061244286828701612327565b935050602061245386828701612327565b9250506040612464868287016123a5565b9150509250925092565b6000806000806080858703121561248457600080fd5b600061249287828801612327565b94505060206124a387828801612327565b93505060406124b4878288016123a5565b925050606085013567ffffffffffffffff8111156124d157600080fd5b6124dd8782880161237b565b91505092959194509250565b600080604083850312156124fc57600080fd5b600061250a85828601612327565b925050602061251b8582860161233c565b9150509250929050565b6000806040838503121561253857600080fd5b600061254685828601612327565b9250506020612557858286016123a5565b9150509250929050565b60006020828403121561257357600080fd5b600061258184828501612351565b91505092915050565b60006020828403121561259c57600080fd5b60006125aa84828501612366565b91505092915050565b6000602082840312156125c557600080fd5b60006125d3848285016123a5565b91505092915050565b6125e5816130ad565b82525050565b6125f4816130bf565b82525050565b600061260582612f55565b61260f8185612f6b565b935061261f818560208601613130565b612628816132fc565b840191505092915050565b600061263e82612f60565b6126488185612f7c565b9350612658818560208601613130565b612661816132fc565b840191505092915050565b600061267782612f60565b6126818185612f8d565b9350612691818560208601613130565b80840191505092915050565b600081546126aa81613163565b6126b48186612f8d565b945060018216600081146126cf57600181146126e057612713565b60ff19831686528186019350612713565b6126e985612f40565b60005b8381101561270b578154818901526001820191506020810190506126ec565b838801955050505b50505092915050565b6000612729603283612f7c565b91506127348261330d565b604082019050919050565b600061274c601c83612f7c565b91506127578261335c565b602082019050919050565b600061276f602483612f7c565b915061277a82613385565b604082019050919050565b6000612792601983612f7c565b915061279d826133d4565b602082019050919050565b60006127b5600b83612f8d565b91506127c0826133fd565b600b82019050919050565b60006127d8602c83612f7c565b91506127e382613426565b604082019050919050565b60006127fb600d83612f8d565b915061280682613475565b600d82019050919050565b600061281e603883612f7c565b91506128298261349e565b604082019050919050565b6000612841602a83612f7c565b915061284c826134ed565b604082019050919050565b6000612864602983612f7c565b915061286f8261353c565b604082019050919050565b6000612887602e83612f7c565b91506128928261358b565b604082019050919050565b60006128aa600283612f8d565b91506128b5826135da565b600282019050919050565b60006128cd602083612f7c565b91506128d882613603565b602082019050919050565b60006128f0603183612f7c565b91506128fb8261362c565b604082019050919050565b6000612913602c83612f7c565b915061291e8261367b565b604082019050919050565b6000612936602983612f7c565b9150612941826136ca565b604082019050919050565b6000612959602f83612f7c565b915061296482613719565b604082019050919050565b600061297c600a83612f8d565b915061298782613768565b600a82019050919050565b600061299f602183612f7c565b91506129aa82613791565b604082019050919050565b60006129c2600a83612f8d565b91506129cd826137e0565b600a82019050919050565b60006129e5601d83612f8d565b91506129f082613809565b601d82019050919050565b6000612a08603183612f7c565b9150612a1382613832565b604082019050919050565b6000612a2b600583612f8d565b9150612a3682613881565b600582019050919050565b6000612a4e606c83612f8d565b9150612a59826138aa565b606c82019050919050565b612a6d81613117565b82525050565b6000612a7f828461266c565b915081905092915050565b6000612a96828561266c565b9150612aa2828461266c565b91508190509392505050565b6000612aba828761269d565b9150612ac6828661266c565b9150612ad2828561269d565b9150612ade828461266c565b9150612ae9826127ee565b915081905095945050505050565b6000612b02826127a8565b9150612b0e828461266c565b915081905092915050565b6000612b248261296f565b9150612b30828561266c565b9150612b3b82612a41565b9150612b47828461266c565b9150612b528261289d565b91508190509392505050565b6000612b69826129b5565b9150612b75828461266c565b915081905092915050565b6000612b8b826129d8565b9150612b97828461266c565b915081905092915050565b6000612bad82612a1e565b9150612bb9828461266c565b915081905092915050565b6000602082019050612bd960008301846125dc565b92915050565b6000608082019050612bf460008301876125dc565b612c0160208301866125dc565b612c0e6040830185612a64565b8181036060830152612c2081846125fa565b905095945050505050565b6000604082019050612c4060008301856125dc565b612c4d6020830184612a64565b9392505050565b6000602082019050612c6960008301846125eb565b92915050565b60006020820190508181036000830152612c898184612633565b905092915050565b60006060820190508181036000830152612cab8186612633565b9050612cba6020830185612a64565b612cc760408301846125dc565b949350505050565b60006020820190508181036000830152612ce88161271c565b9050919050565b60006020820190508181036000830152612d088161273f565b9050919050565b60006020820190508181036000830152612d2881612762565b9050919050565b60006020820190508181036000830152612d4881612785565b9050919050565b60006020820190508181036000830152612d68816127cb565b9050919050565b60006020820190508181036000830152612d8881612811565b9050919050565b60006020820190508181036000830152612da881612834565b9050919050565b60006020820190508181036000830152612dc881612857565b9050919050565b60006020820190508181036000830152612de88161287a565b9050919050565b60006020820190508181036000830152612e08816128c0565b9050919050565b60006020820190508181036000830152612e28816128e3565b9050919050565b60006020820190508181036000830152612e4881612906565b9050919050565b60006020820190508181036000830152612e6881612929565b9050919050565b60006020820190508181036000830152612e888161294c565b9050919050565b60006020820190508181036000830152612ea881612992565b9050919050565b60006020820190508181036000830152612ec8816129fb565b9050919050565b6000602082019050612ee46000830184612a64565b92915050565b6000612ef4612f05565b9050612f008282613195565b919050565b6000604051905090565b600067ffffffffffffffff821115612f2a57612f296132cd565b5b612f33826132fc565b9050602081019050919050565b60008190508160005260206000209050919050565b600081519050919050565b600081519050919050565b600082825260208201905092915050565b600082825260208201905092915050565b600081905092915050565b6000612fa382613117565b9150612fae83613117565b9250827fffffffffffffffffffffffffffffffffffffffffffffffffffffffffffffffff03821115612fe357612fe2613240565b5b828201905092915050565b6000612ff982613117565b915061300483613117565b9250826130145761301361326f565b5b828204905092915050565b600061302a82613117565b915061303583613117565b9250817fffffffffffffffffffffffffffffffffffffffffffffffffffffffffffffffff048311821515161561306e5761306d613240565b5b828202905092915050565b600061308482613117565b915061308f83613117565b9250828210156130a2576130a1613240565b5b828203905092915050565b60006130b8826130f7565b9050919050565b60008115159050919050565b60007fffffffff0000000000000000000000000000000000000000000000000000000082169050919050565b600073ffffffffffffffffffffffffffffffffffffffff82169050919050565b6000819050919050565b82818337600083830152505050565b60005b8381101561314e578082015181840152602081019050613133565b8381111561315d576000848401525b50505050565b6000600282049050600182168061317b57607f821691505b6020821081141561318f5761318e61329e565b5b50919050565b61319e826132fc565b810181811067ffffffffffffffff821117156131bd576131bc6132cd565b5b80604052505050565b60006131d182613117565b91507fffffffffffffffffffffffffffffffffffffffffffffffffffffffffffffffff82141561320457613203613240565b5b600182019050919050565b600061321a82613117565b915061322583613117565b9250826132355761323461326f565b5b828206905092915050565b7f4e487b7100000000000000000000000000000000000000000000000000000000600052601160045260246000fd5b7f4e487b7100000000000000000000000000000000000000000000000000000000600052601260045260246000fd5b7f4e487b7100000000000000000000000000000000000000000000000000000000600052602260045260246000fd5b7f4e487b7100000000000000000000000000000000000000000000000000000000600052604160045260246000fd5b6000601f19601f8301169050919050565b7f4552433732313a207472616e7366657220746f206e6f6e20455243373231526560008201527f63656976657220696d706c656d656e7465720000000000000000000000000000602082015250565b7f4552433732313a20746f6b656e20616c7265616479206d696e74656400000000600082015250565b7f4552433732313a207472616e7366657220746f20746865207a65726f2061646460008201527f7265737300000000000000000000000000000000000000000000000000000000602082015250565b7f4552433732313a20617070726f766520746f2063616c6c657200000000000000600082015250565b7f5345434f4e445f574f5244000000000000000000000000000000000000000000600082015250565b7f4552433732313a206f70657261746f7220717565727920666f72206e6f6e657860008201527f697374656e7420746f6b656e0000000000000000000000000000000000000000602082015250565b7f3c2f746578743e3c2f7376673e00000000000000000000000000000000000000600082015250565b7f4552433732313a20617070726f76652063616c6c6572206973206e6f74206f7760008201527f6e6572206e6f7220617070726f76656420666f7220616c6c0000000000000000602082015250565b7f4552433732313a2062616c616e636520717565727920666f7220746865207a6560008201527f726f206164647265737300000000000000000000000000000000000000000000602082015250565b7f4552433732313a206f776e657220717565727920666f72206e6f6e657869737460008201527f656e7420746f6b656e0000000000000000000000000000000000000000000000602082015250565b7f45524337323155524953746f726167653a2055524920736574206f66206e6f6e60008201527f6578697374656e7420746f6b656e000000000000000000000000000000000000602082015250565b7f227d000000000000000000000000000000000000000000000000000000000000600082015250565b7f4552433732313a206d696e7420746f20746865207a65726f2061646472657373600082015250565b7f45524337323155524953746f726167653a2055524920717565727920666f722060008201527f6e6f6e6578697374656e7420746f6b656e000000000000000000000000000000602082015250565b7f4552433732313a20617070726f76656420717565727920666f72206e6f6e657860008201527f697374656e7420746f6b656e0000000000000000000000000000000000000000602082015250565b7f4552433732313a207472616e73666572206f6620746f6b656e2074686174206960008201527f73206e6f74206f776e0000000000000000000000000000000000000000000000602082015250565b7f4552433732314d657461646174613a2055524920717565727920666f72206e6f60008201527f6e6578697374656e7420746f6b656e0000000000000000000000000000000000602082015250565b7f7b226e616d65223a202200000000000000000000000000000000000000000000600082015250565b7f4552433732313a20617070726f76616c20746f2063757272656e74206f776e6560008201527f7200000000000000000000000000000000000000000000000000000000000000602082015250565b7f46495253545f574f524400000000000000000000000000000000000000000000600082015250565b7f646174613a6170706c69636174696f6e2f6a736f6e3b6261736536342c000000600082015250565b7f4552433732313a207472616e736665722063616c6c6572206973206e6f74206f60008201527f776e6572206e6f7220617070726f766564000000000000000000000000000000602082015250565b7f434f4c4f52000000000000000000000000000000000000000000000000000000600082015250565b7f222c20226465736372697074696f6e223a20224120756e6971756520636f6c6c60008201527f656374696f6e206f66206d6f7469766174696f6e616c20776f72647320666f7260208201527f20796f752e222c2022696d616765223a2022646174613a696d6167652f73766760408201527f2b786d6c3b6261736536342c0000000000000000000000000000000000000000606082015250565b61394e816130ad565b811461395957600080fd5b50565b613965816130bf565b811461397057600080fd5b50565b61397c816130cb565b811461398757600080fd5b50565b61399381613117565b811461399e57600080fd5b5056fe4142434445464748494a4b4c4d4e4f505152535455565758595a6162636465666768696a6b6c6d6e6f707172737475767778797a303132333435363738392b2f646174613a6170706c69636174696f6e2f6a736f6e3b6261736536342c65776f6749434167496d3568625755694f6941695258427059307876636d52495957316964584a6e5a5849694c416f6749434167496d526c63324e796158423061573975496a6f67496b4675494535475643426d636d39744948526f5a53426f6157646f62486b6759574e6a624746706257566b49484e78645746795a53426a623278735a574e30615739754969774b4943416749434a706257466e5a53493649434a6b595852684f6d6c745957646c4c334e325a79743462577737596d467a5a5459304c464249546a4a6165554930596c643464574e364d476c685346497759305276646b777a5a444e6b6554557a54586b31646d4e7459335a4e616b463354554d35656d527459326c4a53454a35576c684f62474e75576d785257453533576c644f4d465674526a4268567a67355357356f546d46584e56705556327831535563786246705955576c4a53467077576c686b5132497a5a7a6c4a616b466e54554e42656b35555157644e656c563353576f3053306c445157644a524868365a456873633170554e48565a62555a36576c4e434e306c48576e4269523363325355686b62324659556d785065554a74596a49314d457858576d68695632787a5a5652765a324d79566e6c6856316b3353556461646d4a755558526a4d6d7732576c52765a303155556e646c52484e6e5a6c5233646d4d7a556a56695231557251326c425a306c445154686a62565a715a454e434d324658556a42685244427054565242643070545357646852315a77576a4a6f4d4642545358684e5245467353576c436257465865484e51553070335a46684b64324a4856576c4a517a677251326c425a306c445154686b523159305a454e434e4642545354464e51315670535568724f556c715658644b55306c6e57544a3461474d7a54546c4a6255706f597a4a5661556c48556e5a6956327831575663314d457858536d686a4d6c5a7a5956633162464254536e526856314a72596b645661556c49556d786c5346463057566331616d46484f586c51553070305956645361324a4856576c5161315a335956644f5457497a536d745452305a305757355765566f79566e6c51517a6b77576c686f4d46426e627a684d4d303479576e6f305053494b66513d3d416e204e4654207769746820494420257320686173206265656e206d696e74656420746f202573a264697066735822122099819f924e4154c93bdc947cc2012a8365c1adea025f0cd7a10ee075c0f699b864736f6c634300080400333c73766720786d6c6e733d27687474703a2f2f7777772e77332e6f72672f323030302f73766727207072657365727665417370656374526174696f3d27784d696e594d696e206d656574272076696577426f783d273020302033353020333530273e3c7374796c653e2e62617365207b2066696c6c3a2077686974653b20666f6e742d66616d696c793a2073657269663b20666f6e742d73697a653a20323470783b207d3c2f7374796c653e3c726563742077696474683d273130302527206865696768743d2731303025272066696c6c3d27272f3e3c7465787420783d273530252720793d273530252720636c6173733d27626173652720646f6d696e616e742d626173656c696e653d276d6964646c652720746578742d616e63686f723d276d6964646c65273e",
    "linkReferences": {},
    "deployedLinkReferences": {}
}