{
    "_format": "hh-sol-artifact-1",
    "contractName": "MyBoldNFT",
    "sourceName": "contracts/MyBoldNFT.sol",
    "abi": [
        {
            "inputs": [],
            "stateMutability": "nonpayable",
            "type": "constructor"
        },
        {
            "anonymous": false,
            "inputs": [
                {
                    "indexed": true,
                    "internalType": "address",
                    "name": "owner",
                    "type": "address"
                },
                {
                    "indexed": true,
                    "internalType": "address",
                    "name": "approved",
                    "type": "address"
                },
                {
                    "indexed": true,
                    "internalType": "uint256",
                    "name": "tokenId",
                    "type": "uint256"
                }
            ],
            "name": "Approval",
            "type": "event"
        },
        {
            "anonymous": false,
            "inputs": [
                {
                    "indexed": true,
                    "internalType": "address",
                    "name": "owner",
                    "type": "address"
                },
                {
                    "indexed": true,
                    "internalType": "address",
                    "name": "operator",
                    "type": "address"
                },
                {
                    "indexed": false,
                    "internalType": "bool",
                    "name": "approved",
                    "type": "bool"
                }
            ],
            "name": "ApprovalForAll",
            "type": "event"
        },
        {
            "anonymous": false,
            "inputs": [
                {
                    "indexed": false,
                    "internalType": "address",
                    "name": "sender",
                    "type": "address"
                },
                {
                    "indexed": false,
                    "internalType": "uint256",
                    "name": "tokenId",
                    "type": "uint256"
                }
            ],
            "name": "NewBoldNFTMinted",
            "type": "event"
        },
        {
            "anonymous": false,
            "inputs": [
                {
                    "indexed": true,
                    "internalType": "address",
                    "name": "from",
                    "type": "address"
                },
                {
                    "indexed": true,
                    "internalType": "address",
                    "name": "to",
                    "type": "address"
                },
                {
                    "indexed": true,
                    "internalType": "uint256",
                    "name": "tokenId",
                    "type": "uint256"
                }
            ],
            "name": "Transfer",
            "type": "event"
        },
        {
            "inputs": [
                {
                    "internalType": "address",
                    "name": "to",
                    "type": "address"
                },
                {
                    "internalType": "uint256",
                    "name": "tokenId",
                    "type": "uint256"
                }
            ],
            "name": "approve",
            "outputs": [],
            "stateMutability": "nonpayable",
            "type": "function"
        },
        {
            "inputs": [
                {
                    "internalType": "address",
                    "name": "owner",
                    "type": "address"
                }
            ],
            "name": "balanceOf",
            "outputs": [
                {
                    "internalType": "uint256",
                    "name": "",
                    "type": "uint256"
                }
            ],
            "stateMutability": "view",
            "type": "function"
        },
        {
            "inputs": [
                {
                    "internalType": "uint256",
                    "name": "tokenId",
                    "type": "uint256"
                }
            ],
            "name": "getApproved",
            "outputs": [
                {
                    "internalType": "address",
                    "name": "",
                    "type": "address"
                }
            ],
            "stateMutability": "view",
            "type": "function"
        },
        {
            "inputs": [
                {
                    "internalType": "address",
                    "name": "owner",
                    "type": "address"
                },
                {
                    "internalType": "address",
                    "name": "operator",
                    "type": "address"
                }
            ],
            "name": "isApprovedForAll",
            "outputs": [
                {
                    "internalType": "bool",
                    "name": "",
                    "type": "bool"
                }
            ],
            "stateMutability": "view",
            "type": "function"
        },
        {
            "inputs": [],
            "name": "mintABoldNFT",
            "outputs": [],
            "stateMutability": "nonpayable",
            "type": "function"
        },
        {
            "inputs": [],
            "name": "name",
            "outputs": [
                {
                    "internalType": "string",
                    "name": "",
                    "type": "string"
                }
            ],
            "stateMutability": "view",
            "type": "function"
        },
        {
            "inputs": [
                {
                    "internalType": "uint256",
                    "name": "tokenId",
                    "type": "uint256"
                }
            ],
            "name": "ownerOf",
            "outputs": [
                {
                    "internalType": "address",
                    "name": "",
                    "type": "address"
                }
            ],
            "stateMutability": "view",
            "type": "function"
        },
        {
            "inputs": [
                {
                    "internalType": "uint256",
                    "name": "tokenId",
                    "type": "uint256"
                }
            ],
            "name": "pickRandomColor",
            "outputs": [
                {
                    "internalType": "string",
                    "name": "",
                    "type": "string"
                }
            ],
            "stateMutability": "view",
            "type": "function"
        },
        {
            "inputs": [
                {
                    "internalType": "uint256",
                    "name": "tokenId",
                    "type": "uint256"
                }
            ],
            "name": "pickRandomFirstWord",
            "outputs": [
                {
                    "internalType": "string",
                    "name": "",
                    "type": "string"
                }
            ],
            "stateMutability": "view",
            "type": "function"
        },
        {
            "inputs": [
                {
                    "internalType": "uint256",
                    "name": "tokenId",
                    "type": "uint256"
                }
            ],
            "name": "pickRandomSecondWord",
            "outputs": [
                {
                    "internalType": "string",
                    "name": "",
                    "type": "string"
                }
            ],
            "stateMutability": "view",
            "type": "function"
        },
        {
            "inputs": [
                {
                    "internalType": "address",
                    "name": "from",
                    "type": "address"
                },
                {
                    "internalType": "address",
                    "name": "to",
                    "type": "address"
                },
                {
                    "internalType": "uint256",
                    "name": "tokenId",
                    "type": "uint256"
                }
            ],
            "name": "safeTransferFrom",
            "outputs": [],
            "stateMutability": "nonpayable",
            "type": "function"
        },
        {
            "inputs": [
                {
                    "internalType": "address",
                    "name": "from",
                    "type": "address"
                },
                {
                    "internalType": "address",
                    "name": "to",
                    "type": "address"
                },
                {
                    "internalType": "uint256",
                    "name": "tokenId",
                    "type": "uint256"
                },
                {
                    "internalType": "bytes",
                    "name": "_data",
                    "type": "bytes"
                }
            ],
            "name": "safeTransferFrom",
            "outputs": [],
            "stateMutability": "nonpayable",
            "type": "function"
        },
        {
            "inputs": [
                {
                    "internalType": "address",
                    "name": "operator",
                    "type": "address"
                },
                {
                    "internalType": "bool",
                    "name": "approved",
                    "type": "bool"
                }
            ],
            "name": "setApprovalForAll",
            "outputs": [],
            "stateMutability": "nonpayable",
            "type": "function"
        },
        {
            "inputs": [
                {
                    "internalType": "bytes4",
                    "name": "interfaceId",
                    "type": "bytes4"
                }
            ],
            "name": "supportsInterface",
            "outputs": [
                {
                    "internalType": "bool",
                    "name": "",
                    "type": "bool"
                }
            ],
            "stateMutability": "view",
            "type": "function"
        },
        {
            "inputs": [],
            "name": "symbol",
            "outputs": [
                {
                    "internalType": "string",
                    "name": "",
                    "type": "string"
                }
            ],
            "stateMutability": "view",
            "type": "function"
        },
        {
            "inputs": [
                {
                    "internalType": "uint256",
                    "name": "tokenId",
                    "type": "uint256"
                }
            ],
            "name": "tokenURI",
            "outputs": [
                {
                    "internalType": "string",
                    "name": "",
                    "type": "string"
                }
            ],
            "stateMutability": "view",
            "type": "function"
        },
        {
            "inputs": [
                {
                    "internalType": "address",
                    "name": "from",
                    "type": "address"
                },
                {
                    "internalType": "address",
                    "name": "to",
                    "type": "address"
                },
                {
                    "internalType": "uint256",
                    "name": "tokenId",
                    "type": "uint256"
                }
            ],
            "name": "transferFrom",
            "outputs": [],
            "stateMutability": "nonpayable",
            "type": "function"
        }
    ],
    "bytecode": "0x608060405260405180610100016040528060d381526020016200449d60d391396008908051906020019062000036929190620006ea565b5060405180608001604052806056815260200162004570605691396009908051906020019062000068929190620006ea565b506040518061010001604052806040518060400160405280600981526020017f43656c656272617465000000000000000000000000000000000000000000000081525081526020016040518060400160405280600481526020017f507573680000000000000000000000000000000000000000000000000000000081525081526020016040518060400160405280600481526020017f4c6f76650000000000000000000000000000000000000000000000000000000081525081526020016040518060400160405280600a81526020017f417070726563696174650000000000000000000000000000000000000000000081525081526020016040518060400160405280600881526020017f5072617920466f7200000000000000000000000000000000000000000000000081525081526020016040518060400160405280600781526020017f4170706c6175640000000000000000000000000000000000000000000000000081525081526020016040518060400160405280600781526020017f526573706563740000000000000000000000000000000000000000000000000081525081526020016040518060400160405280600681526020017f486f6e6f75720000000000000000000000000000000000000000000000000000815250815250600a9060086200025d9291906200077b565b5060405180608001604052806040518060400160405280600981526020017f20596f757273656c66000000000000000000000000000000000000000000000081525081526020016040518060400160405280600781526020017f204f74686572730000000000000000000000000000000000000000000000000081525081526020016040518060400160405280600881526020017f20416c6c204d656e00000000000000000000000000000000000000000000000081525081526020016040518060400160405280600981526020017f2045766572796f6e650000000000000000000000000000000000000000000000815250815250600b90600462000365929190620007e2565b506040518060e001604052806040518060400160405280600481526020017f70696e6b0000000000000000000000000000000000000000000000000000000081525081526020016040518060400160405280600381526020017f726564000000000000000000000000000000000000000000000000000000000081525081526020016040518060400160405280600781526020017f233038433241380000000000000000000000000000000000000000000000000081525081526020016040518060400160405280600581526020017f626c61636b00000000000000000000000000000000000000000000000000000081525081526020016040518060400160405280600681526020017f79656c6c6f77000000000000000000000000000000000000000000000000000081525081526020016040518060400160405280600481526020017f626c75650000000000000000000000000000000000000000000000000000000081525081526020016040518060400160405280600581526020017f677265656e000000000000000000000000000000000000000000000000000000815250815250600c9060076200051e92919062000849565b503480156200052c57600080fd5b506040518060400160405280600781526020017f426f6c644e4654000000000000000000000000000000000000000000000000008152506040518060400160405280600481526020017f424f4c44000000000000000000000000000000000000000000000000000000008152508160009080519060200190620005b1929190620006ea565b508060019080519060200190620005ca929190620006ea565b505050620006186040518060400160405280602081526020017f54686973206973206d79204e465420436f6e74726163742e20596561682121218152506200061e60201b620011461760201c565b62000a6a565b620006be816040516024016200063591906200097e565b6040516020818303038152906040527f41304fac000000000000000000000000000000000000000000000000000000007bffffffffffffffffffffffffffffffffffffffffffffffffffffffff19166020820180517bffffffffffffffffffffffffffffffffffffffffffffffffffffffff8381831617835250505050620006c160201b60201c565b50565b60008151905060006a636f6e736f6c652e6c6f679050602083016000808483855afa5050505050565b828054620006f890620009f4565b90600052602060002090601f0160209004810192826200071c576000855562000768565b82601f106200073757805160ff191683800117855562000768565b8280016001018555821562000768579182015b82811115620007675782518255916020019190600101906200074a565b5b509050620007779190620008b0565b5090565b828054828255906000526020600020908101928215620007cf579160200282015b82811115620007ce578251829080519060200190620007bd929190620006ea565b50916020019190600101906200079c565b5b509050620007de9190620008cf565b5090565b82805482825590600052602060002090810192821562000836579160200282015b828111156200083557825182908051906020019062000824929190620006ea565b509160200191906001019062000803565b5b509050620008459190620008cf565b5090565b8280548282559060005260206000209081019282156200089d579160200282015b828111156200089c5782518290805190602001906200088b929190620006ea565b50916020019190600101906200086a565b5b509050620008ac9190620008cf565b5090565b5b80821115620008cb576000816000905550600101620008b1565b5090565b5b80821115620008f35760008181620008e99190620008f7565b50600101620008d0565b5090565b5080546200090590620009f4565b6000825580601f106200091957506200093a565b601f016020900490600052602060002090810190620009399190620008b0565b5b50565b60006200094a82620009a2565b620009568185620009ad565b935062000968818560208601620009be565b620009738162000a59565b840191505092915050565b600060208201905081810360008301526200099a81846200093d565b905092915050565b600081519050919050565b600082825260208201905092915050565b60005b83811015620009de578082015181840152602081019050620009c1565b83811115620009ee576000848401525b50505050565b6000600282049050600182168062000a0d57607f821691505b6020821081141562000a245762000a2362000a2a565b5b50919050565b7f4e487b7100000000000000000000000000000000000000000000000000000000600052602260045260246000fd5b6000601f19601f8301169050919050565b613a238062000a7a6000396000f3fe608060405234801561001057600080fd5b506004361061010b5760003560e01c8063514dc8c6116100a2578063a22cb46511610071578063a22cb465146102ca578063b187301f146102e6578063b88d4fde14610316578063c87b56dd14610332578063e985e9c5146103625761010b565b8063514dc8c61461021c5780636352211e1461024c57806370a082311461027c57806395d89b41146102ac5761010b565b806309da0d5b116100de57806309da0d5b146101aa57806323b872dd146101b45780632de38d68146101d057806342842e0e146102005761010b565b806301ffc9a71461011057806306fdde0314610140578063081812fc1461015e578063095ea7b31461018e575b600080fd5b61012a60048036038101906101259190612546565b610392565b6040516101379190612c39565b60405180910390f35b610148610474565b6040516101559190612c54565b60405180910390f35b61017860048036038101906101739190612598565b610506565b6040516101859190612ba9565b60405180910390f35b6101a860048036038101906101a3919061250a565b61058b565b005b6101b26106a3565b005b6101ce60048036038101906101c99190612404565b610912565b005b6101ea60048036038101906101e59190612598565b610972565b6040516101f79190612c54565b60405180910390f35b61021a60048036038101906102159190612404565b610a90565b005b61023660048036038101906102319190612598565b610ab0565b6040516102439190612c54565b60405180910390f35b61026660048036038101906102619190612598565b610bce565b6040516102739190612ba9565b60405180910390f35b6102966004803603810190610291919061239f565b610c80565b6040516102a39190612eb4565b60405180910390f35b6102b4610d38565b6040516102c19190612c54565b60405180910390f35b6102e460048036038101906102df91906124ce565b610dca565b005b61030060048036038101906102fb9190612598565b610de0565b60405161030d9190612c54565b60405180910390f35b610330600480360381019061032b9190612453565b610efe565b005b61034c60048036038101906103479190612598565b610f60565b6040516103599190612c54565b60405180910390f35b61037c600480360381019061037791906123c8565b6110b2565b6040516103899190612c39565b60405180910390f35b60007f80ac58cd000000000000000000000000000000000000000000000000000000007bffffffffffffffffffffffffffffffffffffffffffffffffffffffff1916827bffffffffffffffffffffffffffffffffffffffffffffffffffffffff1916148061045d57507f5b5e139f000000000000000000000000000000000000000000000000000000007bffffffffffffffffffffffffffffffffffffffffffffffffffffffff1916827bffffffffffffffffffffffffffffffffffffffffffffffffffffffff1916145b8061046d575061046c826111df565b5b9050919050565b60606000805461048390613148565b80601f01602080910402602001604051908101604052809291908181526020018280546104af90613148565b80156104fc5780601f106104d1576101008083540402835291602001916104fc565b820191906000526020600020905b8154815290600101906020018083116104df57829003601f168201915b5050505050905090565b600061051182611249565b610550576040517f08c379a000000000000000000000000000000000000000000000000000000000815260040161054790612e14565b60405180910390fd5b6004600083815260200190815260200160002060009054906101000a900473ffffffffffffffffffffffffffffffffffffffff169050919050565b600061059682610bce565b90508073ffffffffffffffffffffffffffffffffffffffff168373ffffffffffffffffffffffffffffffffffffffff161415610607576040517f08c379a00000000000000000000000000000000000000000000000000000000081526004016105fe90612e74565b60405180910390fd5b8073ffffffffffffffffffffffffffffffffffffffff166106266112b5565b73ffffffffffffffffffffffffffffffffffffffff16148061065557506106548161064f6112b5565b6110b2565b5b610694576040517f08c379a000000000000000000000000000000000000000000000000000000000815260040161068b90612d54565b60405180910390fd5b61069e83836112bd565b505050565b60006106af6007611376565b905060006106bc82610972565b905060006106c983610de0565b9050600082826040516020016106e0929190612a6f565b604051602081830303815290604052905060006106fc85610ab0565b905060006008826009856040516020016107199493929190612a93565b60405160208183030381529060405290506107686040518060400160405280601581526020017f0a2d2d2d2d2d2d2d2d2d2d2d2d2d2d2d2d2d2d2d2d0000000000000000000000815250611146565b61077181611146565b6107af6040518060400160405280601581526020017f2d2d2d2d2d2d2d2d2d2d2d2d2d2d2d2d2d2d2d2d0a0000000000000000000000815250611146565b60006107e3846107be84611384565b6040516020016107cf929190612afe565b604051602081830303815290604052611384565b90506000816040516020016107f89190612b65565b60405160208183030381529060405290506108476040518060400160405280601581526020017f0a2d2d2d2d2d2d2d2d2d2d2d2d2d2d2d2d2d2d2d2d0000000000000000000000815250611146565b61085081611146565b61088e6040518060400160405280601581526020017f2d2d2d2d2d2d2d2d2d2d2d2d2d2d2d2d2d2d2d2d0a0000000000000000000000815250611146565b6108983389611542565b6108a28882611560565b6108c56040518060600160405280602781526020016139c76027913989336115d4565b6108cf6007611673565b7f6290d248786ef87d48c0f5cd149c740cd577b86b8431189d80d2e8be99f997df3389604051610900929190612c10565b60405180910390a15050505050505050565b61092361091d6112b5565b82611689565b610962576040517f08c379a000000000000000000000000000000000000000000000000000000000815260040161095990612e94565b60405180910390fd5b61096d838383611767565b505050565b606060006109a6610982846119c3565b6040516020016109929190612b43565b604051602081830303815290604052611b70565b9050600a80549050816109b991906131f4565b9050600a81815481106109f5577f4e487b7100000000000000000000000000000000000000000000000000000000600052603260045260246000fd5b906000526020600020018054610a0a90613148565b80601f0160208091040260200160405190810160405280929190818152602001828054610a3690613148565b8015610a835780601f10610a5857610100808354040283529160200191610a83565b820191906000526020600020905b815481529060010190602001808311610a6657829003601f168201915b5050505050915050919050565b610aab83838360405180602001604052806000815250610efe565b505050565b60606000610ae4610ac0846119c3565b604051602001610ad09190612b87565b604051602081830303815290604052611b70565b9050600c8054905081610af791906131f4565b9050600c8181548110610b33577f4e487b7100000000000000000000000000000000000000000000000000000000600052603260045260246000fd5b906000526020600020018054610b4890613148565b80601f0160208091040260200160405190810160405280929190818152602001828054610b7490613148565b8015610bc15780601f10610b9657610100808354040283529160200191610bc1565b820191906000526020600020905b815481529060010190602001808311610ba457829003601f168201915b5050505050915050919050565b6000806002600084815260200190815260200160002060009054906101000a900473ffffffffffffffffffffffffffffffffffffffff169050600073ffffffffffffffffffffffffffffffffffffffff168173ffffffffffffffffffffffffffffffffffffffff161415610c77576040517f08c379a0000000000000000000000000000000000000000000000000000000008152600401610c6e90612d94565b60405180910390fd5b80915050919050565b60008073ffffffffffffffffffffffffffffffffffffffff168273ffffffffffffffffffffffffffffffffffffffff161415610cf1576040517f08c379a0000000000000000000000000000000000000000000000000000000008152600401610ce890612d74565b60405180910390fd5b600360008373ffffffffffffffffffffffffffffffffffffffff1673ffffffffffffffffffffffffffffffffffffffff168152602001908152602001600020549050919050565b606060018054610d4790613148565b80601f0160208091040260200160405190810160405280929190818152602001828054610d7390613148565b8015610dc05780601f10610d9557610100808354040283529160200191610dc0565b820191906000526020600020905b815481529060010190602001808311610da357829003601f168201915b5050505050905090565b610ddc610dd56112b5565b8383611ba3565b5050565b60606000610e14610df0846119c3565b604051602001610e009190612adc565b604051602081830303815290604052611b70565b9050600b8054905081610e2791906131f4565b9050600b8181548110610e63577f4e487b7100000000000000000000000000000000000000000000000000000000600052603260045260246000fd5b906000526020600020018054610e7890613148565b80601f0160208091040260200160405190810160405280929190818152602001828054610ea490613148565b8015610ef15780601f10610ec657610100808354040283529160200191610ef1565b820191906000526020600020905b815481529060010190602001808311610ed457829003601f168201915b5050505050915050919050565b610f0f610f096112b5565b83611689565b610f4e576040517f08c379a0000000000000000000000000000000000000000000000000000000008152600401610f4590612e94565b60405180910390fd5b610f5a84848484611d10565b50505050565b6060610f6b82611249565b610faa576040517f08c379a0000000000000000000000000000000000000000000000000000000008152600401610fa190612df4565b60405180910390fd5b6000600660008481526020019081526020016000208054610fca90613148565b80601f0160208091040260200160405190810160405280929190818152602001828054610ff690613148565b80156110435780601f1061101857610100808354040283529160200191611043565b820191906000526020600020905b81548152906001019060200180831161102657829003601f168201915b505050505090506000611054611d6c565b905060008151141561106a5781925050506110ad565b60008251111561109f578082604051602001611087929190612a6f565b604051602081830303815290604052925050506110ad565b6110a884611d83565b925050505b919050565b6000600560008473ffffffffffffffffffffffffffffffffffffffff1673ffffffffffffffffffffffffffffffffffffffff16815260200190815260200160002060008373ffffffffffffffffffffffffffffffffffffffff1673ffffffffffffffffffffffffffffffffffffffff16815260200190815260200160002060009054906101000a900460ff16905092915050565b6111dc8160405160240161115a9190612c54565b6040516020818303038152906040527f41304fac000000000000000000000000000000000000000000000000000000007bffffffffffffffffffffffffffffffffffffffffffffffffffffffff19166020820180517bffffffffffffffffffffffffffffffffffffffffffffffffffffffff8381831617835250505050611e2a565b50565b60007f01ffc9a7000000000000000000000000000000000000000000000000000000007bffffffffffffffffffffffffffffffffffffffffffffffffffffffff1916827bffffffffffffffffffffffffffffffffffffffffffffffffffffffff1916149050919050565b60008073ffffffffffffffffffffffffffffffffffffffff166002600084815260200190815260200160002060009054906101000a900473ffffffffffffffffffffffffffffffffffffffff1673ffffffffffffffffffffffffffffffffffffffff1614159050919050565b600033905090565b816004600083815260200190815260200160002060006101000a81548173ffffffffffffffffffffffffffffffffffffffff021916908373ffffffffffffffffffffffffffffffffffffffff160217905550808273ffffffffffffffffffffffffffffffffffffffff1661133083610bce565b73ffffffffffffffffffffffffffffffffffffffff167f8c5be1e5ebec7d5bd14f71427d1e84f3dd0314c0f7b2291e5b200ac8c7c3b92560405160405180910390a45050565b600081600001549050919050565b606060008251905060008114156113ad576040518060200160405280600081525091505061153d565b600060036002836113be9190612f7d565b6113c89190612fd3565b60046113d49190613004565b905060006020826113e59190612f7d565b67ffffffffffffffff811115611424577f4e487b7100000000000000000000000000000000000000000000000000000000600052604160045260246000fd5b6040519080825280601f01601f1916602001820160405280156114565781602001600182028036833780820191505090505b5090506000604051806060016040528060408152602001613987604091399050600181016020830160005b868110156114fa5760038101905062ffffff818a015116603f8160121c168401518060081b905060ff603f83600c1c1686015116810190508060081b905060ff603f8360061c1686015116810190508060081b905060ff603f831686015116810190508060e01b90508084526004840193505050611481565b50600386066001811461151457600281146115245761152f565b613d3d60f01b600283035261152f565b603d60f81b60018303525b508484525050819450505050505b919050565b61155c828260405180602001604052806000815250611e53565b5050565b61156982611249565b6115a8576040517f08c379a000000000000000000000000000000000000000000000000000000000815260040161159f90612db4565b60405180910390fd5b806006600084815260200190815260200160002090805190602001906115cf92919061222b565b505050565b61166e8383836040516024016115ec93929190612c76565b6040516020818303038152906040527fe3849f79000000000000000000000000000000000000000000000000000000007bffffffffffffffffffffffffffffffffffffffffffffffffffffffff19166020820180517bffffffffffffffffffffffffffffffffffffffffffffffffffffffff8381831617835250505050611e2a565b505050565b6001816000016000828254019250508190555050565b600061169482611249565b6116d3576040517f08c379a00000000000000000000000000000000000000000000000000000000081526004016116ca90612d34565b60405180910390fd5b60006116de83610bce565b90508073ffffffffffffffffffffffffffffffffffffffff168473ffffffffffffffffffffffffffffffffffffffff16148061174d57508373ffffffffffffffffffffffffffffffffffffffff1661173584610506565b73ffffffffffffffffffffffffffffffffffffffff16145b8061175e575061175d81856110b2565b5b91505092915050565b8273ffffffffffffffffffffffffffffffffffffffff1661178782610bce565b73ffffffffffffffffffffffffffffffffffffffff16146117dd576040517f08c379a00000000000000000000000000000000000000000000000000000000081526004016117d490612e34565b60405180910390fd5b600073ffffffffffffffffffffffffffffffffffffffff168273ffffffffffffffffffffffffffffffffffffffff16141561184d576040517f08c379a000000000000000000000000000000000000000000000000000000000815260040161184490612cf4565b60405180910390fd5b611858838383611eae565b6118636000826112bd565b6001600360008573ffffffffffffffffffffffffffffffffffffffff1673ffffffffffffffffffffffffffffffffffffffff16815260200190815260200160002060008282546118b3919061305e565b925050819055506001600360008473ffffffffffffffffffffffffffffffffffffffff1673ffffffffffffffffffffffffffffffffffffffff168152602001908152602001600020600082825461190a9190612f7d565b92505081905550816002600083815260200190815260200160002060006101000a81548173ffffffffffffffffffffffffffffffffffffffff021916908373ffffffffffffffffffffffffffffffffffffffff160217905550808273ffffffffffffffffffffffffffffffffffffffff168473ffffffffffffffffffffffffffffffffffffffff167fddf252ad1be2c89b69c2b068fc378daa952ba7f163c4a11628f55a4df523b3ef60405160405180910390a4505050565b60606000821415611a0b576040518060400160405280600181526020017f30000000000000000000000000000000000000000000000000000000000000008152509050611b6b565b600082905060005b60008214611a3d578080611a26906131ab565b915050600a82611a369190612fd3565b9150611a13565b60008167ffffffffffffffff811115611a7f577f4e487b7100000000000000000000000000000000000000000000000000000000600052604160045260246000fd5b6040519080825280601f01601f191660200182016040528015611ab15781602001600182028036833780820191505090505b5090505b60008514611b6457600182611aca919061305e565b9150600a85611ad991906131f4565b6030611ae59190612f7d565b60f81b818381518110611b21577f4e487b7100000000000000000000000000000000000000000000000000000000600052603260045260246000fd5b60200101907effffffffffffffffffffffffffffffffffffffffffffffffffffffffffffff1916908160001a905350600a85611b5d9190612fd3565b9450611ab5565b8093505050505b919050565b600081604051602001611b839190612a58565b6040516020818303038152906040528051906020012060001c9050919050565b8173ffffffffffffffffffffffffffffffffffffffff168373ffffffffffffffffffffffffffffffffffffffff161415611c12576040517f08c379a0000000000000000000000000000000000000000000000000000000008152600401611c0990612d14565b60405180910390fd5b80600560008573ffffffffffffffffffffffffffffffffffffffff1673ffffffffffffffffffffffffffffffffffffffff16815260200190815260200160002060008473ffffffffffffffffffffffffffffffffffffffff1673ffffffffffffffffffffffffffffffffffffffff16815260200190815260200160002060006101000a81548160ff0219169083151502179055508173ffffffffffffffffffffffffffffffffffffffff168373ffffffffffffffffffffffffffffffffffffffff167f17307eab39ab6107e8899845ad3d59bd9653f200f220920489ca2b5937696c3183604051611d039190612c39565b60405180910390a3505050565b611d1b848484611767565b611d2784848484611eb3565b611d66576040517f08c379a0000000000000000000000000000000000000000000000000000000008152600401611d5d90612cb4565b60405180910390fd5b50505050565b606060405180602001604052806000815250905090565b6060611d8e82611249565b611dcd576040517f08c379a0000000000000000000000000000000000000000000000000000000008152600401611dc490612e54565b60405180910390fd5b6000611dd7611d6c565b90506000815111611df75760405180602001604052806000815250611e22565b80611e01846119c3565b604051602001611e12929190612a6f565b6040516020818303038152906040525b915050919050565b60008151905060006a636f6e736f6c652e6c6f679050602083016000808483855afa5050505050565b611e5d838361204a565b611e6a6000848484611eb3565b611ea9576040517f08c379a0000000000000000000000000000000000000000000000000000000008152600401611ea090612cb4565b60405180910390fd5b505050565b505050565b6000611ed48473ffffffffffffffffffffffffffffffffffffffff16612218565b1561203d578373ffffffffffffffffffffffffffffffffffffffff1663150b7a02611efd6112b5565b8786866040518563ffffffff1660e01b8152600401611f1f9493929190612bc4565b602060405180830381600087803b158015611f3957600080fd5b505af1925050508015611f6a57506040513d601f19601f82011682018060405250810190611f67919061256f565b60015b611fed573d8060008114611f9a576040519150601f19603f3d011682016040523d82523d6000602084013e611f9f565b606091505b50600081511415611fe5576040517f08c379a0000000000000000000000000000000000000000000000000000000008152600401611fdc90612cb4565b60405180910390fd5b805181602001fd5b63150b7a0260e01b7bffffffffffffffffffffffffffffffffffffffffffffffffffffffff1916817bffffffffffffffffffffffffffffffffffffffffffffffffffffffff191614915050612042565b600190505b949350505050565b600073ffffffffffffffffffffffffffffffffffffffff168273ffffffffffffffffffffffffffffffffffffffff1614156120ba576040517f08c379a00000000000000000000000000000000000000000000000000000000081526004016120b190612dd4565b60405180910390fd5b6120c381611249565b15612103576040517f08c379a00000000000000000000000000000000000000000000000000000000081526004016120fa90612cd4565b60405180910390fd5b61210f60008383611eae565b6001600360008473ffffffffffffffffffffffffffffffffffffffff1673ffffffffffffffffffffffffffffffffffffffff168152602001908152602001600020600082825461215f9190612f7d565b92505081905550816002600083815260200190815260200160002060006101000a81548173ffffffffffffffffffffffffffffffffffffffff021916908373ffffffffffffffffffffffffffffffffffffffff160217905550808273ffffffffffffffffffffffffffffffffffffffff16600073ffffffffffffffffffffffffffffffffffffffff167fddf252ad1be2c89b69c2b068fc378daa952ba7f163c4a11628f55a4df523b3ef60405160405180910390a45050565b600080823b905060008111915050919050565b82805461223790613148565b90600052602060002090601f01602090048101928261225957600085556122a0565b82601f1061227257805160ff19168380011785556122a0565b828001600101855582156122a0579182015b8281111561229f578251825591602001919060010190612284565b5b5090506122ad91906122b1565b5090565b5b808211156122ca5760008160009055506001016122b2565b5090565b60006122e16122dc84612ef4565b612ecf565b9050828152602081018484840111156122f957600080fd5b612304848285613106565b509392505050565b60008135905061231b8161392a565b92915050565b60008135905061233081613941565b92915050565b60008135905061234581613958565b92915050565b60008151905061235a81613958565b92915050565b600082601f83011261237157600080fd5b81356123818482602086016122ce565b91505092915050565b6000813590506123998161396f565b92915050565b6000602082840312156123b157600080fd5b60006123bf8482850161230c565b91505092915050565b600080604083850312156123db57600080fd5b60006123e98582860161230c565b92505060206123fa8582860161230c565b9150509250929050565b60008060006060848603121561241957600080fd5b60006124278682870161230c565b93505060206124388682870161230c565b92505060406124498682870161238a565b9150509250925092565b6000806000806080858703121561246957600080fd5b60006124778782880161230c565b94505060206124888782880161230c565b93505060406124998782880161238a565b925050606085013567ffffffffffffffff8111156124b657600080fd5b6124c287828801612360565b91505092959194509250565b600080604083850312156124e157600080fd5b60006124ef8582860161230c565b925050602061250085828601612321565b9150509250929050565b6000806040838503121561251d57600080fd5b600061252b8582860161230c565b925050602061253c8582860161238a565b9150509250929050565b60006020828403121561255857600080fd5b600061256684828501612336565b91505092915050565b60006020828403121561258157600080fd5b600061258f8482850161234b565b91505092915050565b6000602082840312156125aa57600080fd5b60006125b88482850161238a565b91505092915050565b6125ca81613092565b82525050565b6125d9816130a4565b82525050565b60006125ea82612f3a565b6125f48185612f50565b9350612604818560208601613115565b61260d816132e1565b840191505092915050565b600061262382612f45565b61262d8185612f61565b935061263d818560208601613115565b612646816132e1565b840191505092915050565b600061265c82612f45565b6126668185612f72565b9350612676818560208601613115565b80840191505092915050565b6000815461268f81613148565b6126998186612f72565b945060018216600081146126b457600181146126c5576126f8565b60ff198316865281860193506126f8565b6126ce85612f25565b60005b838110156126f0578154818901526001820191506020810190506126d1565b838801955050505b50505092915050565b600061270e603283612f61565b9150612719826132f2565b604082019050919050565b6000612731601c83612f61565b915061273c82613341565b602082019050919050565b6000612754602483612f61565b915061275f8261336a565b604082019050919050565b6000612777601983612f61565b9150612782826133b9565b602082019050919050565b600061279a600b83612f72565b91506127a5826133e2565b600b82019050919050565b60006127bd602c83612f61565b91506127c88261340b565b604082019050919050565b60006127e0600d83612f72565b91506127eb8261345a565b600d82019050919050565b6000612803603883612f61565b915061280e82613483565b604082019050919050565b6000612826602a83612f61565b9150612831826134d2565b604082019050919050565b6000612849602983612f61565b915061285482613521565b604082019050919050565b600061286c602e83612f61565b915061287782613570565b604082019050919050565b600061288f600283612f72565b915061289a826135bf565b600282019050919050565b60006128b2602083612f61565b91506128bd826135e8565b602082019050919050565b60006128d5603183612f61565b91506128e082613611565b604082019050919050565b60006128f8602c83612f61565b915061290382613660565b604082019050919050565b600061291b602983612f61565b9150612926826136af565b604082019050919050565b600061293e602f83612f61565b9150612949826136fe565b604082019050919050565b6000612961600a83612f72565b915061296c8261374d565b600a82019050919050565b6000612984602183612f61565b915061298f82613776565b604082019050919050565b60006129a7600a83612f72565b91506129b2826137c5565b600a82019050919050565b60006129ca601d83612f72565b91506129d5826137ee565b601d82019050919050565b60006129ed603183612f61565b91506129f882613817565b604082019050919050565b6000612a10600583612f72565b9150612a1b82613866565b600582019050919050565b6000612a33606c83612f72565b9150612a3e8261388f565b606c82019050919050565b612a52816130fc565b82525050565b6000612a648284612651565b915081905092915050565b6000612a7b8285612651565b9150612a878284612651565b91508190509392505050565b6000612a9f8287612682565b9150612aab8286612651565b9150612ab78285612682565b9150612ac38284612651565b9150612ace826127d3565b915081905095945050505050565b6000612ae78261278d565b9150612af38284612651565b915081905092915050565b6000612b0982612954565b9150612b158285612651565b9150612b2082612a26565b9150612b2c8284612651565b9150612b3782612882565b91508190509392505050565b6000612b4e8261299a565b9150612b5a8284612651565b915081905092915050565b6000612b70826129bd565b9150612b7c8284612651565b915081905092915050565b6000612b9282612a03565b9150612b9e8284612651565b915081905092915050565b6000602082019050612bbe60008301846125c1565b92915050565b6000608082019050612bd960008301876125c1565b612be660208301866125c1565b612bf36040830185612a49565b8181036060830152612c0581846125df565b905095945050505050565b6000604082019050612c2560008301856125c1565b612c326020830184612a49565b9392505050565b6000602082019050612c4e60008301846125d0565b92915050565b60006020820190508181036000830152612c6e8184612618565b905092915050565b60006060820190508181036000830152612c908186612618565b9050612c9f6020830185612a49565b612cac60408301846125c1565b949350505050565b60006020820190508181036000830152612ccd81612701565b9050919050565b60006020820190508181036000830152612ced81612724565b9050919050565b60006020820190508181036000830152612d0d81612747565b9050919050565b60006020820190508181036000830152612d2d8161276a565b9050919050565b60006020820190508181036000830152612d4d816127b0565b9050919050565b60006020820190508181036000830152612d6d816127f6565b9050919050565b60006020820190508181036000830152612d8d81612819565b9050919050565b60006020820190508181036000830152612dad8161283c565b9050919050565b60006020820190508181036000830152612dcd8161285f565b9050919050565b60006020820190508181036000830152612ded816128a5565b9050919050565b60006020820190508181036000830152612e0d816128c8565b9050919050565b60006020820190508181036000830152612e2d816128eb565b9050919050565b60006020820190508181036000830152612e4d8161290e565b9050919050565b60006020820190508181036000830152612e6d81612931565b9050919050565b60006020820190508181036000830152612e8d81612977565b9050919050565b60006020820190508181036000830152612ead816129e0565b9050919050565b6000602082019050612ec96000830184612a49565b92915050565b6000612ed9612eea565b9050612ee5828261317a565b919050565b6000604051905090565b600067ffffffffffffffff821115612f0f57612f0e6132b2565b5b612f18826132e1565b9050602081019050919050565b60008190508160005260206000209050919050565b600081519050919050565b600081519050919050565b600082825260208201905092915050565b600082825260208201905092915050565b600081905092915050565b6000612f88826130fc565b9150612f93836130fc565b9250827fffffffffffffffffffffffffffffffffffffffffffffffffffffffffffffffff03821115612fc857612fc7613225565b5b828201905092915050565b6000612fde826130fc565b9150612fe9836130fc565b925082612ff957612ff8613254565b5b828204905092915050565b600061300f826130fc565b915061301a836130fc565b9250817fffffffffffffffffffffffffffffffffffffffffffffffffffffffffffffffff048311821515161561305357613052613225565b5b828202905092915050565b6000613069826130fc565b9150613074836130fc565b92508282101561308757613086613225565b5b828203905092915050565b600061309d826130dc565b9050919050565b60008115159050919050565b60007fffffffff0000000000000000000000000000000000000000000000000000000082169050919050565b600073ffffffffffffffffffffffffffffffffffffffff82169050919050565b6000819050919050565b82818337600083830152505050565b60005b83811015613133578082015181840152602081019050613118565b83811115613142576000848401525b50505050565b6000600282049050600182168061316057607f821691505b6020821081141561317457613173613283565b5b50919050565b613183826132e1565b810181811067ffffffffffffffff821117156131a2576131a16132b2565b5b80604052505050565b60006131b6826130fc565b91507fffffffffffffffffffffffffffffffffffffffffffffffffffffffffffffffff8214156131e9576131e8613225565b5b600182019050919050565b60006131ff826130fc565b915061320a836130fc565b92508261321a57613219613254565b5b828206905092915050565b7f4e487b7100000000000000000000000000000000000000000000000000000000600052601160045260246000fd5b7f4e487b7100000000000000000000000000000000000000000000000000000000600052601260045260246000fd5b7f4e487b7100000000000000000000000000000000000000000000000000000000600052602260045260246000fd5b7f4e487b7100000000000000000000000000000000000000000000000000000000600052604160045260246000fd5b6000601f19601f8301169050919050565b7f4552433732313a207472616e7366657220746f206e6f6e20455243373231526560008201527f63656976657220696d706c656d656e7465720000000000000000000000000000602082015250565b7f4552433732313a20746f6b656e20616c7265616479206d696e74656400000000600082015250565b7f4552433732313a207472616e7366657220746f20746865207a65726f2061646460008201527f7265737300000000000000000000000000000000000000000000000000000000602082015250565b7f4552433732313a20617070726f766520746f2063616c6c657200000000000000600082015250565b7f5345434f4e445f574f5244000000000000000000000000000000000000000000600082015250565b7f4552433732313a206f70657261746f7220717565727920666f72206e6f6e657860008201527f697374656e7420746f6b656e0000000000000000000000000000000000000000602082015250565b7f3c2f746578743e3c2f7376673e00000000000000000000000000000000000000600082015250565b7f4552433732313a20617070726f76652063616c6c6572206973206e6f74206f7760008201527f6e6572206e6f7220617070726f76656420666f7220616c6c0000000000000000602082015250565b7f4552433732313a2062616c616e636520717565727920666f7220746865207a6560008201527f726f206164647265737300000000000000000000000000000000000000000000602082015250565b7f4552433732313a206f776e657220717565727920666f72206e6f6e657869737460008201527f656e7420746f6b656e0000000000000000000000000000000000000000000000602082015250565b7f45524337323155524953746f726167653a2055524920736574206f66206e6f6e60008201527f6578697374656e7420746f6b656e000000000000000000000000000000000000602082015250565b7f227d000000000000000000000000000000000000000000000000000000000000600082015250565b7f4552433732313a206d696e7420746f20746865207a65726f2061646472657373600082015250565b7f45524337323155524953746f726167653a2055524920717565727920666f722060008201527f6e6f6e6578697374656e7420746f6b656e000000000000000000000000000000602082015250565b7f4552433732313a20617070726f76656420717565727920666f72206e6f6e657860008201527f697374656e7420746f6b656e0000000000000000000000000000000000000000602082015250565b7f4552433732313a207472616e73666572206f6620746f6b656e2074686174206960008201527f73206e6f74206f776e0000000000000000000000000000000000000000000000602082015250565b7f4552433732314d657461646174613a2055524920717565727920666f72206e6f60008201527f6e6578697374656e7420746f6b656e0000000000000000000000000000000000602082015250565b7f7b226e616d65223a202200000000000000000000000000000000000000000000600082015250565b7f4552433732313a20617070726f76616c20746f2063757272656e74206f776e6560008201527f7200000000000000000000000000000000000000000000000000000000000000602082015250565b7f46495253545f574f524400000000000000000000000000000000000000000000600082015250565b7f646174613a6170706c69636174696f6e2f6a736f6e3b6261736536342c000000600082015250565b7f4552433732313a207472616e736665722063616c6c6572206973206e6f74206f60008201527f776e6572206e6f7220617070726f766564000000000000000000000000000000602082015250565b7f434f4c4f52000000000000000000000000000000000000000000000000000000600082015250565b7f222c20226465736372697074696f6e223a20224120756e6971756520636f6c6c60008201527f656374696f6e206f66206d6f7469766174696f6e616c20776f72647320666f7260208201527f20796f752e222c2022696d616765223a2022646174613a696d6167652f73766760408201527f2b786d6c3b6261736536342c0000000000000000000000000000000000000000606082015250565b61393381613092565b811461393e57600080fd5b50565b61394a816130a4565b811461395557600080fd5b50565b613961816130b0565b811461396c57600080fd5b50565b613978816130fc565b811461398357600080fd5b5056fe4142434445464748494a4b4c4d4e4f505152535455565758595a6162636465666768696a6b6c6d6e6f707172737475767778797a303132333435363738392b2f416e204e4654207769746820494420257320686173206265656e206d696e74656420746f202573a2646970667358221220298c5c6af3bde264d0802830a89b5661edc0b1384075ae55daf4f70580a3899064736f6c634300080400333c73766720786d6c6e733d27687474703a2f2f7777772e77332e6f72672f323030302f73766727207072657365727665417370656374526174696f3d27784d696e594d696e206d656574272076696577426f783d273020302033353020333530273e3c7374796c653e2e62617365207b2066696c6c3a2077686974653b20666f6e742d66616d696c793a2073657269663b20666f6e742d73697a653a20323470783b207d3c2f7374796c653e3c726563742077696474683d273130302527206865696768743d2731303025272066696c6c3d27272f3e3c7465787420783d273530252720793d273530252720636c6173733d27626173652720646f6d696e616e742d626173656c696e653d276d6964646c652720746578742d616e63686f723d276d6964646c65273e",
    "linkReferences": {},
    "deployedLinkReferences": {}
}